:020000040800F2
:10000000D00F002079020008012E0008E92A00081C
:10001000FD2D0008E3030008D731000800000000B0
:10002000000000000000000000000000712E000829
:100030009907000800000000052E0008732E000834
:10004000930200089302000893020008930200083C
:10005000930200089302000893020008930200082C
:10006000930200089302000893020008E1060008CA
:10007000930200089302000893020008930200080C
:1000800093020008930200089302000893020008FC
:1000900093020008930200089302000893020008EC
:1000A00093020008930200089302000893020008DC
:1000B0009302000893020008F92E0008930200083A
:1000C00093020008930200089302000893020008BC
:1000D00093020008930200089302000893020008AC
:1000E000930200089302000893020008930200089C
:1000F000930200089302000893020008930200088C
:10010000930200089302000893020008930200087B
:10011000930200089302000893020008930200086B
:10012000930200089302000893020008930200085B
:10013000930200089302000893020008930200084B
:10014000930200089302000893020008930200083B
:10015000930200089302000893020008930200082B
:10016000930200089302000893020008930200081B
:10017000930200089302000893020008930200080B
:1001800093020008930200089302000893020008FB
:100190009302000800000000930200089302000888
:1001A00093020008930200089302000893020008DB
:1001B00093020008930200089302000893020008CB
:1001C00093020008930200089302000893020008BB
:1001D000930200089302000800F002F800F03CF8D7
:1001E0000AA090E8000C82448344AAF10107DA4592
:1001F00001D100F031F8AFF2090EBAE80F0013F0A8
:10020000010F18BFFB1A43F001031847DC4400003C
:10021000FC440000103A24BF78C878C1FAD85207CD
:1002200024BF30C830C144BF04680C607047000070
:100230000023002400250026103A28BF78C1FBD8EF
:10024000520728BF30C148BF0B6070471FB504F08C
:10025000A8F91FBD10B510BD00F08EF81146FFF7CC
:10026000F5FF03F075FC00F0ACF803B4FFF7F2FF04
:1002700003BC00F0AFF80000094880470948004778
:10028000FEE7FEE7FEE7FEE7FEE7FEE7FEE7FEE746
:10029000FEE7FEE704480549054A064B70470000A3
:1002A000E52E0008D9010008D0090020D00F002059
:1002B000D00B0020D00B00204FF000020429C0F02A
:1002C000128010F0030C00F01B80CCF1040CBCF188
:1002D000020F18BF00F8012BA8BF20F8022BA1EBDA
:1002E0000C0100F00DB85FEAC17C24BF00F8012BBF
:1002F00000F8012B48BF00F8012B70474FF00002B7
:1003000000B5134694469646203922BFA0E80C500B
:10031000A0E80C50B1F12001BFF4F7AF090728BFE6
:10032000A0E80C5048BF0CC05DF804EB890028BF62
:1003300040F8042B08BF704748BF20F8022B11F08B
:10034000804F18BF00F8012B704770477047704707
:1003500010B500F009F8006810BD10B5044600F0B3
:1003600003F8046010BD00000048704770090020C9
:1003700000487047700900207546FFF7F9FFAE4648
:1003800005006946534620F00700854618B020B5A1
:10039000FFF780FFBDE820404FF000064FF0000758
:1003A0004FF000084FF0000B21F00701AC46ACE81D
:1003B000C009ACE8C009ACE8C009ACE8C0098D468A
:1003C000704710B50446AFF300802046BDE81040EA
:1003D000FFF74BBF01491820ABBEFEE72600020025
:1003E000704700BFFEE770B50446A56A284600F0D6
:1003F00013FD0120287170BD70B50446A56A28461A
:1004000000F0D2FB0120287170BD70B50546AC6AC2
:10041000206940F004002061204600F016FD012014
:10042000207170BD70B50546AC6A206940F00400CB
:100430002061204600F0BAFB0120207170BD70B52C
:100440000446A56A284600F0FFFC70BD70B504465E
:10045000A56A284600F0A9FB70BD000070B52DED1F
:100460000C8B0546002435E0204603F00AFE41ECE3
:100470001D0B9FED1B0B53EC102B03F02DFE41ECDD
:100480001C0B9FED190B53EC102B03F045FC41ECBA
:100490001B0BB0EE4B0AF0EE6B0A02F0D5FEB0EE8D
:1004A00040AAF0EE60AA9FED120B53EC102B51EC1A
:1004B0001A0B03F011FE41EC190B9FED0F0B53ECDF
:1004C000102B03F081FB41EC180B03F0ADFD25F878
:1004D0001400641CB4F5007FC6DBBDEC0C8B70BD52
:1004E0004AD8124DFB211940000000000000804056
:1004F0000000000000FC9F40000000000000A04041
:1005000010B504460020C4F80004C4F8040484F8BC
:100510000C084FF40070C4F808082046FFF79EFF4F
:100520009FED060A204600F033F8D4F80808410091
:1005300004F58160FFF7C0FE10BD000000007A44A2
:1005400038B504460021104800F0B0FD0020C4F882
:1005500000049FED0E0A204600F058F804F5816172
:100560002046D4F8082800F09FF80020009004F5F9
:10057000816201460448D4F8083800F0E9FC012003
:1005800084F80C0838BD00003C0000200000AA429E
:1005900070B52DED0A8B0546B0EE408A184C600808
:1005A00000EE100AB8EE400AB4EEC80AF1EE10FAF6
:1005B00006D2600800EE100AB8EE400AB0EE408A9B
:1005C000204603F075FD41EC1A0B18EE100A03F0FB
:1005D00077FF41EC1C0B9FED0B0B53EC102B03F042
:1005E0007BFD41EC1B0B53EC1A2B03F095FB41EC0C
:1005F000190B03F019FDC5F80404BDEC0A8B70BD9E
:10060000A0860100000000000000F0419FED0C1AE0
:1006100020EE011ADFED0B1A81EE212AF0EE420ADC
:100620009FED091A20EE811ADFED081A81EE212ACA
:10063000BCEEC21A11EE101AC0F810187047000074
:10064000DA0F4940000034430000804FDA0FC94000
:1006500038B504461148007800EE100AB8EE400A9A
:100660002046FFF7D3FF04F581612046D4F808281F
:1006700000F01AF80A4801F07DFE012000F0CCFEDF
:100680000020009004F5816201460648D4F808383D
:1006900000F05EFC012084F80C0838BD1400002036
:1006A000C40000203C000020F0B50B46002113E000
:1006B00000F58066C0CE3E44C0F80064D0F81078E3
:1006C000D0F80064F41940F6FF7606EAD45530F805
:1006D000156023F81160491C9142E9D3F0BD000078
:1006E00010B5024800F04EFD10BD0000640000206F
:1006F00030B50E4D0468AC4201D20D4901E00C4901
:1007000020310B460478083C1425B4FBF5F2446C08
:10071000A40803EB84048464054C8034C46402F0B0
:100720001F050124AC40046530BD000008040240F0
:100730000008024001794A1E064B03EB8202426523
:10074000044A403282654A1E02F01F0301229A4089
:10075000C26570470009024030B5D0E913546C609F
:10076000446D14B1D0E916546C6090F8444004F024
:100770001F050124AC40056C6C60046863608468EC
:10078000102C04D10468A2600468E16003E00468EE
:10079000A1600468E26030BD704772B600BFFEE73A
:1007A0002DE9F843044600200090804614B94FF02C
:1007B000010881E12068006800F00040B0F1004FBE
:1007C00002D14FF0010877E1607F28B9002020773F
:1007D0002062204600F07EF92068006800F40007DF
:1007E000D4E90110084361690843E16808432169BD
:1007F00040EA010620680068B1490840304321689A
:1008000008602068006800F4000088B187B9AD482E
:100810000068AD49B0FBF1F0401C00EB80008000A7
:10082000009002E00098401E009000980028F9D146
:10083000A6492068884202D14FF4001025E0A34960
:10084000091D2068884202D14FF480001DE09F49B5
:1008500008312068884201D1800616E09B490C319E
:100860002068884202D14FF080400EE09749103155
:100870002068884201D1C00607E0944914312068FD
:10088000884201D1012000E002200546207E00F0D0
:10089000030000287ED0207E00F01000D0B18B49EC
:1008A00014312068884203D0091D2068884207D18E
:1008B00000BF8748006828438549086000BF24E0DE
:1008C00000BF8348203800682843814920390860E8
:1008D00000BF1AE07D4914312068884203D0091D09
:1008E0002068884207D100BF79480068A84378494A
:1008F000086000BF09E000BF754820380068A843C1
:1009000073492039086000BF00BF207E00F020003E
:10091000E0B16E4914312068884203D0091D206877
:10092000884209D100BF6A48001D00682843684911
:10093000091D086000BF26E000BF65481C3800683C
:10094000284363491C39086000BF1CE05F4914312B
:100950002068884203D0091D2068884209D100BF61
:100960005B48001D0068A8435949091D086000BF85
:1009700009E000BF56481C380068A84354491C3998
:10098000086000BF00BF514914312068884205D07B
:10099000091D00E06CE02068884203D1284602F07F
:1009A000ABF802E0284602F0A1F8207E00F0020039
:1009B000E0B1464914312068884203D0091D2068FF
:1009C000884209D100BF4248001F006828434049BF
:1009D000091F086000BF19E000BF3D4824380068C7
:1009E00028433B492439086000BF0FE037491431E0
:1009F0002068884203D0091D2068884203D1284618
:100A000002F088F802E0284602F07CF8207E00F030
:100A10000100E0B12D4914312068884203D0091D3E
:100A20002068884209D100BF294808380068284357
:100A300027490839086000BF3AE000BF2448283839
:100A40000068284322492839086000BF30E01F4968
:100A500014312068884203D0091D2068884203D1E0
:100A6000284602F067F823E0284602F05BF81FE012
:100A7000164914312068884203D0091D2068884235
:100A800003D1284602F046F802E0284602F03AF880
:100A90000E4914312068884203D0091D206888421D
:100AA00003D1284602F046F802E0284602F03AF860
:100AB000607F08B9012060774046BDE8F8830000F8
:100AC0000F7E00FF10000020400D030000020140D7
:100AD0002804014010B586B00446142101A8FFF790
:100AE0000DFC16492068884226D100BF1448C06C0E
:100AF00040F001001249C8640846C06C00F00100D3
:100B0000009000BF00BF0120019002200290002051
:100B1000039004900820059001A94FF0904000F048
:100B20008FFC02200190032002900020039001A975
:100B30004FF0904000F084FC06B010BD0002014070
:100B40000010024008B5014600220092002009B9B9
:100B5000012024E00A68126802F00042B2F1004F5E
:100B600001D101201BE04A7F012A17D10A681268CF
:100B700042F001020B681A6002224A77084A1268A2
:100B8000084BB2FBF3F202EB8202009202E0009A01
:100B9000521E0092009A002AF9D100E0012008BDFF
:100BA0001000002080841E007047704770470000CE
:100BB0002DE9F84F04460D4616460020009004B17A
:100BC00015B90120BDE8F88FE869012800D100BF00
:100BD000A868042800D103E06869022800D100BF9A
:100BE00000BF6079012801D10220EBE7012060718C
:100BF00000BF02202071A868042859D100F006FD2A
:100C00008246E6B911E000F001FDA0EB0A000128E0
:100C10000BD92068406B00F4004030B1206940F0EF
:100C20000800206103202071CCE72068406B00F4AD
:100C300000400028E7D1686A216808641BE011E0E1
:100C400000F0E4FCA0EB0A0001280BD92068406BFF
:100C500000F0004030B1206940F00800206103201E
:100C60002071AFE72068406B00F000400028E7D11A
:100C7000686A216848642068806C06F0100240F2BF
:100C8000FF319140884306F01002A96A9140084361
:100C9000216888642068C06C06F01002FF21914032
:100CA000884306F01002E96A914008432168C8644D
:100CB000E86901280FD12068876B06F010011F201A
:100CC00088408743D5F8208006F0100008FA00F02D
:100CD0000743206887632068C76B06F01001072070
:100CE00088408743A869012802D14FF000090CE031
:100CF000A869022802D14FF0010906E0686910B91D
:100D00004FF0010901E04FF000096969A868084344
:100D100040EA090806F010014FF4807088408743CC
:100D20002879012801D1000200E0002040EA0808EB
:100D300006F010014FF4007088408743687901285D
:100D400001D1400200E0002040EA080827F44047B3
:100D5000286802280FD100F0D7FE83462C498B4526
:100D600002D947F4004708E02A48834502D947F4EE
:100D7000804702E001E02868074306F0100108FA06
:100D800001F007432068C7632068006806F010027E
:100D90004FF48041914088432168086020680768CB
:100DA00006F0100140F6FE7088408743D5F80C80AD
:100DB00006F0100108FA01F0074320680760206878
:100DC000006806F01002C021914088432168086045
:100DD000287BC0F38308287CC0F3830048EA0028FE
:100DE0002068006E06F0100240F60F7191408843B3
:100DF00006F0100108FA01F1084321680866012095
:100E0000207100BF0020607100BF0098DAE600008A
:100E10000068890900B4C40410B50446084890F875
:100E20000C0801280AD107492068884206D10448E5
:100E300000F58161D0F80828FFF736FC10BD0000EE
:100E40005C010020000800507047704710B5044650
:100E50000CB9012010BD207920B900206071204616
:100E600000F008F80220207100202061012020718C
:100E70000020EFE710B586B00446142101A8FFF763
:100E80003DFA2E492068884243D100BF2C48C06CEF
:100E900040F480302A49C8640846C06C00F48030B1
:100EA000009000BF00BF00BF0846C06C40F00100CA
:100EB000C8640846C06C00F00100009000BF00BF8D
:100EC00010200190032002900020039001A94FF010
:100ED000904000F0B5FA1B481B49086006204860A6
:100EE0001021194881600021C160802101618900C1
:100EF0004161490081612021C1610021016200F04E
:100F0000C1F908B1FFF749FC00BF0F48A060846237
:100F100011E00E49206888420DD100BF0848C06C1E
:100F200040F480200649C8640846C06C00F4802064
:100F3000009000BF00BF06B010BD000000080050C8
:100F40000010024008000240640000200010005021
:100F50002DE9F84F04460E4690469A46DDF8289053
:100F600014B90120BDE8F88F00BF6079012801D1D4
:100F70000220F7E70120607100BF0220207116BB3C
:100F80004248A168C8624248A16808634148A16814
:100F900048632068006840F4805021680860B9F117
:100FA000000F03D0B9F1040F08D103E0206800F16D
:100FB000080507E0206800F10C0503E0206800F157
:100FC000100500BF22E03448E168C8623348E16898
:100FD00008633348E16848632068006840F0805047
:100FE00021680860B9F1000F03D0B9F1040F08D1EE
:100FF00003E0206800F1140507E0206800F11805FF
:1010000003E0206800F11C0500BF00BF6EB9206836
:10101000006840F400502168086053462A46414663
:10102000A06800F097F907460CE02068006840F0DF
:1010300000502168086053462A464146E06800F0A7
:1010400089F9074600BF0020607100BFBFB9206862
:10105000006806F0100201219140084321680860F1
:10106000104800681049B0FBF1F0401C009002E00D
:101070000098401E009000980028F9D103E02069F4
:1010800040F00400206138466CE70000E7030008E8
:101090003F0400080B040008F90300084D04000891
:1010A0002504000810000020400D030070B5044620
:1010B0000D460CB9012070BD2068006805F01002D3
:1010C0004FF480519140884321680860206800688F
:1010D00005F01002012191408843216808604DB954
:1010E000A06800F014F82068006820F4005021681F
:1010F000086008E0E06800F00AF82068006820F066
:10110000005021680860012020710020D3E70146CB
:10111000002091F82520022A03D00422CA6301206E
:1011200027E00A68126822F00E020B681A608A6CC7
:10113000126822F480728B6C1A600A68126822F0BE
:1011400001020B681A6091F8442002F01F0301228B
:101150009A400B6C5A60D1E913325A604A6D42B121
:101160004A6D126822F480724B6D1A60D1E9163212
:101170005A60012281F8252000BF002281F8242036
:1011800000BF704770B50446206C0568206806688B
:1011900094F8440000F01F01042088402840E0B18A
:1011A00006F00400C8B12068006800F0200028B9EB
:1011B0002068006820F004002168086094F844006A
:1011C00000F01F0104208840216C4860206B00283B
:1011D00056D02046216B884752E094F8440000F036
:1011E0001F0102208840284018B306F0020000B317
:1011F0002068006800F0200040B92068006820F0F6
:101200000A0021680860012084F8250094F8440051
:1012100000F01F0102208840216C486000BF0020C0
:1012200084F8240000BFE06A50B32046E16A884792
:1012300026E094F8440000F01F0108208840284070
:10124000F0B106F00800D8B12068006820F00E0068
:101250002168086094F8440000F01F0101208840D4
:10126000216C48600120E06384F8250000BF002065
:1012700084F8240000BF606B10B12046616B884782
:1012800070BD000070B504460CB9012070BD2F4937
:10129000206888420BD22E492068401A1421B0FBE6
:1012A000F1F0800060642A48083820640AE0274989
:1012B0002068401A1421B0FBF1F0800060642348DC
:1012C00008382064022084F825002068056847F665
:1012D000F0708543D4E9020108432169084361693C
:1012E0000843A1690843E1690843216A08430543AB
:1012F000206805602046FFF7FBF9A068B0F5804F35
:1013000001D1002060602079A16C0860D4E913103D
:101310004860606860B16068042809D82046FFF71B
:1013200009FA0020616D0860D4E91610486003E0F6
:1013300000206065A065E0650020E063012084F87E
:101340002500002084F8240000BF9FE70804024025
:10135000080002402DE9F04104460D4616461F469E
:101360004FF0000800BF94F82400012802D10220A9
:10137000BDE8F081012084F8240000BF94F8250026
:1013800001283FD1022084F825000020E063206876
:10139000006820F00100216808603B46324629467B
:1013A0002046FFF7D9F9206B30B12068006840F083
:1013B0000E00216808600BE02068006820F004003F
:1013C000216808602068006840F00A002168086011
:1013D000A06C006800F4803028B1A06C006840F474
:1013E0008070A16C0860606D28B1606D006840F489
:1013F0008070616D08602068006840F0010021681D
:10140000086006E000BF002084F8240000BF4FF011
:1014100002084046ACE7000070B5044600F0F6F85C
:1014200006462546681C10B104480068054400BF04
:1014300000F0ECF8801BA842FAD370BD0C0000202D
:1014400078B502460B460021CAE001268E401D6891
:1014500005EA0604002C73D01D7905F00305012D63
:1014600004D01D7905F00305022D13D190684E00BC
:101470000325B540A8434E00DD68B5402843906081
:10148000506801258D40A8431D79C5F300158D4096
:10149000284350601D7905F00305032D09D0D0685D
:1014A0004E000325B540A8434E009D68B540284333
:1014B000D0601D7905F00305022D13D1CE0802F18D
:1014C000200555F826004D07EE0E0F25B540A84320
:1014D0004E07F60E1D69B5402843CE0802F12005DF
:1014E00045F8260010684E000325B540A8431D7935
:1014F00005F003054E00B540284310605D6805F413
:101500004035002D6BD000BF384D2D6E45F00105E4
:10151000364E356635462D6E05F00105009500BF47
:1015200000BF4FEAB6358E0855F826008D072E0FFE
:101530000F25B540A843B2F1904F02D100251AE023
:101540004DE02B4DAA4201D1012514E0294DAA42BC
:1015500001D102250FE0284DAA4201D103250AE05E
:10156000264DAA4201D1042505E0254DAA4201D10C
:10157000052500E006258E07360FB5402843214D8E
:101580008E0845F82600204D2868A0435D6805F4C4
:10159000801505B120431C4D28602D1D2868A043EF
:1015A0005D6805F4001505B12043174D2D1D286019
:1015B000154D2D1F2868A0435D6805F4003505B161
:1015C0002043114D2D1F28602D1F2868A0435D6802
:1015D00005F4803505B120430B4D083D2860491CBA
:1015E0001D68CD40002D7FF430AF78BD0010024063
:1015F0000004004800080048000C004800100048A3
:101600000014004808000140080401400148006837
:10161000704700000400002003480068034909687F
:101620000844014908607047040000200C000020B5
:1016300010B50024032000F0ABF80F2000F008F8EC
:1016400008B1012401E000F02FF8204610BD000091
:1016500070B50446002511480068D8B10F480068ED
:101660004FF47A71B1FBF0F00D490968B1FBF0F667
:10167000304600F049FD58B9102C07D2002221460F
:10168000501E00F047F80748046004E0012502E01E
:10169000012500E00125284670BD00000C00002057
:1016A000100000200800002008B500BF0E48006EA2
:1016B00040F001000C4908660846006E00F0010089
:1016C000009000BF00BF00BF0846806D40F0805012
:1016D00088650846806D00F08050009000BF00BF14
:1016E00000F0F6F808BD0000001002400146084670
:1016F00000280DDB00BF00BF00F01F0301229A404D
:1017000043099B0003F1E023C3F8002100BF00BFA1
:1017100000BF70472DE9F05F80460D46164601F088
:1017200075FD074639462A46334601F00700C0F1E9
:10173000070ABAF1040F02D94FF0040A01E0C0F120
:10174000070AD14600F1040ABAF1070F02D24FF09E
:10175000000A01E0A0F1030AD4464FF0010A0AFA98
:1017600009FAAAF1010A0AEA020A0AFA0CFA4FF087
:10177000010B0BFA0CFBABF1010B0BEA030B4AEA72
:101780000B042146404601F049FDBDE8F09F0000F2
:1017900000BF00F00702064B19684FF6FF0319401F
:1017A000044B0B4343EA0221014B196000BF704711
:1017B0000CED00E00000FA0502468ABB41480068D3
:1017C00000F4C060B0F5806F2BD13E4880300068D7
:1017D00020F480703B4BC3F880001846006820F46A
:1017E000C06040F4007018603748006832235843E6
:1017F000364BB0FBF3F0411C00E0491E3148406914
:1018000000F48060B0F5806F01D10029F5D12D483A
:10181000406900F48060B0F5806F51D103207047BB
:1018200008E028488030006820F48070254BC3F819
:10183000800045E0B2F5007F3AD12248006800F40C
:10184000C060B0F5806F2AD11E488030006840F437
:1018500080701C4BC3F880001846006820F4C060FC
:1018600040F4007018601848006832235843174B42
:10187000B0FBF3F0411C00E0491E1248406900F43F
:101880008060B0F5806F01D10029F5D10D48406925
:1018900000F48060B0F5806F12D10320BFE70948E3
:1018A0008030006840F48070064BC3F8800007E089
:1018B0000448006820F4C06040F48060014B186068
:1018C0000020ACE7007000401000002040420F00F4
:1018D0000348806840F480400149886070470000F8
:1018E000007000402DE9F04104460D464FF000081D
:1018F00014B90120BDE8F0817D48006800F00F00B8
:10190000A8420ED27A48006820F00F002843784998
:1019100008600846006800F00F00A84201D00120CE
:10192000E8E7207800F00100002864D06068032810
:1019300023D17048006800F0007008B90120D9E791
:1019400001F062FA06466C48864237D969488068D9
:1019500000F0F00030B1207800F0020002282DD114
:10196000A06858BB6348806820F0F00040F0800019
:10197000604988604FF0800820E06068022806D146
:101980005C48006800F4003040B90120B2E75948D3
:10199000006800F4806008B90120ABE700F0BAF8F5
:1019A00006465548864209D95248806820F0F00022
:1019B00040F080004F4988604FF080084D488068B3
:1019C00020F00300616808434A498860FFF71EFE63
:1019D000074608E0FFF71AFEC01B41F28831884233
:1019E00001D9032086E74348806800F00C00616855
:1019F000B0EB810FEED1207800F00200022820D158
:101A0000207800F00400042805D13A48806840F4AA
:101A1000E06038498860207800F00800082807D185
:101A20003448806820F4605040F4E06031498860B8
:101A30003048806820F0F000A16808432D49886094
:101A400008E0B8F1800F05D12A48806820F0F00046
:101A5000284988602648006800F00F00A84219D97C
:101A60002348006820F00F00284321490860FFF751
:101A7000CDFD074608E0FFF7C9FDC01B41F28831E4
:101A8000884201D9032035E71948006800F00F00AB
:101A9000A842F0D1207800F00400042807D11548AE
:101AA000806820F4E060E16808431249886020788B
:101AB00000F00800082808D10E48806820F4605023
:101AC000216940EAC1000B49886000F023F8094908
:101AD0008968C1F30311094A515C01F01F01C84034
:101AE0000749086007480068FFF7B2FD02E70000F9
:101AF000002002400010024000B4C404AC450008BD
:101B00001000002008000020014800687047000015
:101B10001000002070B5224DAD6805F00C05042DB5
:101B200001D120483AE01E4DAD6805F00C05082DA6
:101B300001D11D4832E01A4DAD6805F00C050C2DA1
:101B40002BD1174DED6805F00304154DED68C5F375
:101B500003156A1C022C0CD0032C09D1124DB5FBC5
:101B6000F2F50F4EF668C6F3062605FB06F10AE00D
:101B700000BF0C4DB5FBF2F5094EF668C6F306261C
:101B800005FB06F100BF00BF054DED68C5F34165DB
:101B90006D1C6B00B1FBF3F000E0002070BD000095
:101BA000001002400024F40000127A002DE9F843EE
:101BB000044614B90120BDE8F883207800F0010044
:101BC000002865D0FC48806800F00C07FA48C0681F
:101BD00000F003060C2F01D1032E01D0082F0AD1EB
:101BE000F548006800F40030002851D060680028F3
:101BF0004ED10120DFE700BF6068B0F5803F06D11D
:101C0000ED48006840F48030EB4908601AE06068F5
:101C1000B0F5A02F0BD1E848006840F48020E649D9
:101C200008600846006840F4803008600AE0E24836
:101C3000006820F48030E04908600846006820F41D
:101C40008020086000BF606888B1FFF7DFFC0546B0
:101C500006E0FFF7DBFC401B642801D90320AAE75C
:101C6000D548006800F400300028F2D010E0FFF7FB
:101C7000CDFC054606E0FFF7C9FC401B642801D9EE
:101C8000032098E7CC48006800F400300028F2D127
:101C9000207800F00200022860D1C748806800F078
:101CA0000C07C548C06800F003060C2F01D1022EB6
:101CB00001D0042F18D1C048006800F4806018B12A
:101CC000E06808B9012076E7BB48406820F0FE4094
:101CD000217C40EA0160B8494860B8480068FFF7D5
:101CE000B7FC18B3012066E7E06800B3B2480068AB
:101CF00040F48070B0490860FFF788FC054606E0B4
:101D0000FFF784FC401B022801D9032053E7AA48AF
:101D1000006800F480600028F2D0A748406820F0F6
:101D2000FE40217C40EA0160A349486016E0A248D9
:101D3000006820F48070A0490860FFF767FC054642
:101D400006E0FFF763FC401B022801D9032032E7BD
:101D50009948006800F480600028F2D1207800F0F3
:101D60000800082836D16069D0B1934894300068E3
:101D700040F001009049C1F89400FFF747FC054688
:101D800006E0FFF743FC401B022801D9032012E7BD
:101D900089489430006800F002000028F1D019E072
:101DA00085489430006820F001008349C1F8940010
:101DB000FFF72CFC054606E0FFF728FC401B022835
:101DC00001D90320F7E67C489430006800F0020057
:101DD0000028F1D1207800F00400042872D14FF0DF
:101DE00000087548806D012121EA107078B100BFAC
:101DF0007148806D40F080506F4988650846806D5D
:101E000000F08050009000BF00BF4FF001086C4808
:101E1000006800F48070B0B96948006840F48070D0
:101E200067490860FFF7F2FB054606E0FFF7EEFBA7
:101E3000401B022801D90320BDE66148006800F478
:101E400080700028F2D000BFA068012808D15A484D
:101E50009030006840F001005749C1F8900021E03F
:101E6000A06805280FD154489030006840F0040065
:101E70005149C1F890000846D0F8900040F00100A8
:101E8000C1F890000EE04C489030006820F001004E
:101E90004949C1F890000846D0F8900020F00400AD
:101EA000C1F8900000BFA068A8B1FFF7AFFB0546DE
:101EB00009E0FFF7ABFB401B41F28831884202D9B1
:101EC000032078E625E03C489030006800F00200EE
:101ED0000028EED013E0FFF799FB054608E0FFF776
:101EE00095FB401B41F28831884201D9032062E60C
:101EF00031489030006800F002000028EFD1B8F1BE
:101F0000010F05D12C48806D20F080502A4988654A
:101F100000BF207800F02000202836D1A069D0B181
:101F200025489830006840F001002349C1F8980026
:101F3000FFF76CFB054606E0FFF768FB401B022835
:101F400001D9032037E61C489830006800F00200F1
:101F50000028F1D019E018489830006820F00100FE
:101F60001549C1F89800FFF751FB054606E0FFF759
:101F70004DFB401B022801D903201CE60E48983077
:101F8000006800F002000028F1D1E069002860D06C
:101F90000948806800F00C000C287AD0E06902281B
:101FA00058D10548006820F0807003490860FFF7A9
:101FB0002DFB05460DE00000001002400800002047
:101FC00000700040FFF722FB401B022801D90320CC
:101FD000F1E54A48006800F000700028F2D1D4E929
:101FE0000810401E41EA0011A06A41EA0021208E3B
:101FF0000122C2EB500041EA40513420005DC2EBA7
:10200000500041EA40612C20005D41EAC0603B493C
:10201000C9683B4A114008433849C860084600680F
:1020200040F0807008600846C06840F08070C8606A
:10203000FFF7ECFA054606E0FFF7E8FA401B022836
:1020400001D90320B7E52D48006800F00070002892
:10205000F2D051E02948006820F0807027490860DC
:10206000FFF7D4FA054606E0FFF7D0FA401B022836
:1020700001D903209FE52148006800F00070002886
:10208000F2D11E48C0681F4908401C49C86033E0AF
:10209000FFE7E069012800D18DE51848C66806F021
:1020A0000301206A814225D106F0F001606A401EDA
:1020B000B1EB001F1ED106F4FE41A06AB1EB002F68
:1020C00018D106F078412C20005DB1EBC06F11D122
:1020D00006F4C001208E0122C2EB5000B1EB405F3C
:1020E00008D106F0C0613420005DC2EB5000B1EBB6
:1020F000406F01D001205EE500205CE50010024049
:102100000C809F01FCFFEEFE70B504462546681E5C
:10211000B0F1807F01D301200FE0681E4FF0E02175
:1021200048610F214FF0FF3001F078F800204FF0A8
:10213000E021886107200861002070BD704770476A
:10214000704770477047704730B502460B4600BF76
:1021500092F83C00012801D1022030BD012082F814
:102160003C0000BF022082F83D0010684168106802
:102170008468234D1068A84207D0224D1068A842F9
:1021800003D0214D1068A84203D121F47001586892
:1021900001431E4801401868014310684160184D12
:1021A0001068A8421BD01068B0F1804F17D0184DAE
:1021B0001068A84213D0174D1068A8420FD0164DD2
:1021C0001068A8420BD00F4D1068A84207D0134DDD
:1021D0001068A84203D00C4D1068A84205D124F025
:1021E00080049868044310688460012082F83D00F0
:1021F00000BF002082F83C0000BF00BFADE7000038
:10220000002C014000340140005001408FFFFFFDD1
:102210000004004000080040000C00400040014065
:10222000704710B504460CB9012010BD94F83D006C
:1022300028B9002084F83C00204600F029F802204C
:1022400084F83D00211D206800F05EFE012084F826
:10225000480000BF84F83E0001213F200155402086
:10226000015541200155422001554320015500BF31
:1022700000BF012084F84400452001554620015547
:102280004720015500BF012084F83D000020CCE725
:1022900010B586B00446142101A8FEF72FF8206877
:1022A000B0F1804F0DD100BF2F48806D40F001008C
:1022B0002D4988650846806D00F00100009000BF40
:1022C0004FE02A49206888424BD100BF2648806DE4
:1022D00040F00400244988650846806D00F0040041
:1022E000009000BF00BF00BF0846C06C40F0010076
:1022F000C8640846C06C00F00100009000BF00BF39
:1023000000BF0846C06C40F00200C8640846C06CBC
:1023100000F00200009000BF00BF8814019002206E
:1023200002900020039004900A20059001A94FF02C
:102330009040FFF785F84FF48070019002200290E2
:102340000020039004900220059001A90848FFF79F
:1023500077F8002211461E20FFF7DCF91E20FFF758
:10236000C5F906B010BD0000001002400008004092
:1023700000040048014691F83D00012801D00120E9
:102380007047022081F83D001C4B086898421BD022
:102390000868B0F1804F17D0194B0868984213D0E5
:1023A000184B086898420FD0174B086898420BD01A
:1023B000164B0868984207D0154B0868984203D01E
:1023C000144B0868984210D108688068124B00EAE4
:1023D0000302062A0FD0B2F5803F0CD008680068CF
:1023E00040F001000B68186005E00868006840F0E4
:1023F00001000B6818600020C2E70000002C0140BB
:102400000004004000080040000C0040003401407F
:102410000040014000500140070001002DE9F0415B
:1024200004460D46002700BF94F83C00012802D165
:102430000220BDE8F081012084F83C0000BF0220AA
:1024400084F83D00206886684248064026F47F46AE
:10245000206886602868B0F5005F33D015DC40281E
:1024600051D008DC002858D0102857D0202856D04A
:10247000302862D154E0502831D0602839D07028FB
:1024800013D0B0F5805F58D10EE000F00F010029A5
:1024900053D10011A0F5803008284ED2DFE800F0BB
:1024A000414243444546474849E0D5E902136A683A
:1024B000206800F0B2FD2068866846F07706206844
:1024C00086603CE0D5E902136A68206800F0A5FD4B
:1024D0002068806840F48040216888602FE0EA68C6
:1024E0006968206800F0B0FD5021206800F0A0FD70
:1024F00025E0EA686968206800F002FE6021206833
:1025000000F096FD1BE0EA686968206800F09CFD19
:102510004021206800F08CFD11E000BF00BF00BF2B
:1025200000BF00BF00BF00BF00BF00BF00BF00BFB3
:102530002968206800F07CFD01E0012700BF00BF92
:10254000012084F83D0000BF002084F83C0000BF5B
:1025500038466EE788FFCEFF10B504460F49206865
:10256000884211D1207F04280ED10D480068401CFC
:102570000B49086008460068B0F5FA7F04D30020D4
:1025800008600848FDF7DCFF2068006900F00800DB
:10259000082802D1C0432168086110BD000800402E
:1025A000000000205C0100202DE9F04104460D46AA
:1025B0001646002700BF94F83C00012802D10220F3
:1025C000BDE8F081012084F83C0000BF96B9EB68BB
:1025D000D5E90012206800F04BFD2068806920F0EA
:1025E0000C002168886120688069A9680843216817
:1025F000886141E0042E13D1EB68D5E90012206810
:1026000000F092FD2068806920F4406021688861B4
:1026100020688069A96840EA0120216888612BE070
:10262000082E12D1EB68D5E90012206800F099FD60
:102630002068C06920F00C002168C8612068C0696A
:10264000A96808432168C86116E00C2E13D1EB6815
:10265000D5E90012206800F0A0FD2068C06920F4D0
:1026600040602168C8612068C069A96840EA01200B
:102670002168C86100E0012700BF002084F83C0009
:1026800000BF38469CE710B504460CB9012010BDC8
:1026900094F83D0028B9002084F83C00204600F062
:1026A00029F8022084F83D00211D206800F02CFC50
:1026B000012084F8480000BF84F83E0001213F203B
:1026C000015540200155412001554220015543202C
:1026D000015500BF00BF012084F84400452001558A
:1026E000462001554720015500BF012084F83D00D8
:1026F0000020CCE7704700002DE9F04304460D466A
:10270000002715B994F83E0015E0042D02D13F20B2
:10271000005D10E0082D02D14020005D0BE00C2D83
:1027200002D14120005D06E0102D02D14220005D63
:1027300001E04320005D804615B994F844000BE0A9
:10274000042D02D14520005D06E0082D02D146206F
:10275000005D01E04720005D8146B8F1010F02D124
:10276000B9F1010F02D00120BDE8F0831DB90220AC
:1027700084F83E001AE0042D03D102213F200155C8
:1027800014E0082D03D10221402001550EE00C2D4C
:1027900003D102214120015508E0102D03D102216F
:1027A0004220015502E00221432001551DB90220BB
:1027B00084F844000EE0042D03D102214520015588
:1027C00008E0082D03D102214620015502E0022134
:1027D0004720015535B1042D0BD0082D10D00C2DFC
:1027E0001CD114E02068C06840F002002168C86075
:1027F00016E02068C06840F004002168C8600FE05F
:102800002068C06840F008002168C86008E02068BF
:10281000C06840F010002168C86001E0012700BFD7
:1028200000BFA7BB01222946206800F0E5FB1C4938
:10283000206888421BD02068B0F1804F17D019491A
:102840002068884213D01849206888420FD0174961
:10285000206888420BD016492068884207D0154965
:102860002068884203D014492068884210D120682B
:102870008068124900EA0106062E0FD0B6F5803FA7
:102880000CD02068006840F001002168086005E075
:102890002068006840F0010021680860384663E75E
:1028A000002C01400004004000080040000C0040E3
:1028B0000034014000400140005001400700010089
:1028C00070B504462068C6682068056905F00200F6
:1028D000022819D106F00200022815D1401F2168F4
:1028E0000861012020772068806900F0030018B19A
:1028F0002046FFF731FE05E0204600F0F1F82046C3
:1029000000F0EFF80020207705F00400042819D12A
:1029100006F00400042815D1C04321680861022094
:1029200020772068806900F4407018B12046FFF7D6
:1029300013FE05E0204600F0D3F8204600F0D1F861
:102940000020207705F00800082819D106F00800BB
:10295000082815D1C0432168086104202077206829
:10296000C06900F0030018B12046FFF7F5FD05E04F
:10297000204600F0B5F8204600F0B3F8002020779C
:1029800005F01000102819D106F01000102815D1FC
:10299000C04321680861082020772068C06900F4DE
:1029A000407018B12046FFF7D7FD05E0204600F043
:1029B00097F8204600F095F80020207705F00100F8
:1029C00048B106F0010030B16FF0010021680861E4
:1029D000204600F087F805F08000802804D005F438
:1029E0000050B0F5005F0AD106F08000802806D1C3
:1029F0006FF40250216808612046FFF7A0FB05F440
:102A00008070B0F5807F0AD106F08000802806D162
:102A10006FF48070216808612046FFF78FFB05F096
:102A20004000402809D106F04000402805D1C043AD
:102A300021680861204600F056F805F020002028A3
:102A400009D106F02000202805D1C0432168086183
:102A50002046FFF775FB05F48010B0F5801F0BD101
:102A600006F48010B0F5801F06D16FF48010216845
:102A700008612046FFF766FB05F40010B0F5001F63
:102A80000BD106F40010B0F5001F06D16FF4001052
:102A9000216808612046FFF754FB05F48000B0F57B
:102AA000800F0BD106F48000B0F5800F06D16FF4D3
:102AB0008000216808612046FFF745FB05F400000F
:102AC000B0F5000F0BD106F40000B0F5000F06D1F1
:102AD0006FF40000216808612046FFF7A1FB70BD7C
:102AE000704770477047704700BFFEE701490860B4
:102AF000704700001404014001490860704700005D
:102B000034040140024909688143014A1160704759
:102B100004040140024909688143014A1160704779
:102B200024040140024909688143014A1160704749
:102B300000040140024909688143014A116070475D
:102B40002004014010B50B480B4908600020486084
:102B50000A4909488160002101614FF4E021C16008
:102B60000021416112218161FDF71AFE08B1FDF7D4
:102B700014FE10BD0002014018000020300080004B
:102B800000B58DB0302101A8FDF7B8FB11481249FE
:102B900008600846FEF75AF908B1FDF7FEFD02206D
:102BA000019000208DF808008DF809000390122094
:102BB00004900020059006900120079000200890C6
:102BC000002201A90448FDF7F3FF08B1FDF7E5FD78
:102BD0000DB000BD000800503C00002000B58DB0D5
:102BE000302101A8FDF78AFB10481149086008460A
:102BF000FEF72CF908B1FDF7D0FD0220019000206E
:102C00008DF808008DF809000390049005900220CB
:102C10000690079000200890002201A90448FDF7C3
:102C2000C7FF08B1FDF7B9FD0DB000BD00100050A1
:102C30005000002008B500BF1148806C40F004002F
:102C40000F4988640846806C00F00400009000BFC3
:102C500000BF00BF0846806C40F001008864084651
:102C6000806C00F00100009000BF00BF0022114600
:102C70000B20FEF74FFD0B20FEF738FD08BD0000CE
:102C80000010024008B500BF1348C06C40F020009F
:102C90001149C8640846C06C00F02000009000BFD5
:102CA00000BF00BF0846C06C40F00100C864084681
:102CB000C06C00F00100009000BF00BF00BF0846DC
:102CC000C06C40F00200C8640846C06C00F002000E
:102CD000009000BF00BF08BD0010024000B587B0E3
:102CE00000200390049005900690009001900290BF
:102CF0004FF0804013490860A92048600021114826
:102D000081600921C160002101618161FFF789FAB9
:102D100008B1FDF742FD4FF48050039003A9094824
:102D2000FFF77CFB08B1FDF738FD20200090002064
:102D3000029069460348FFF707FA08B1FDF72DFD39
:102D400007B000BDC400002000B58BB00020079084
:102D5000089009900A9004900590069000900190C8
:102D600002900390234824490860A920486000216C
:102D7000214881604FF6FF71C160002101618161CE
:102D8000FFF74FFA08B1FDF708FD4FF480500790A8
:102D900007A91948FFF742FB08B1FDF7FEFC1648EA
:102DA000FFF771FC08B1FDF7F8FC002004900690D5
:102DB00004A91148FFF7C8F908B1FDF7EEFC00209F
:102DC00000900120019000200290039004226946A7
:102DD0000948FFF7E9FB08B1FDF7DFFC0A20039083
:102DE000082269460448FFF7DFFB08B1FDF7D5FC70
:102DF0000BB000BD000800401001002000BFFEE73E
:102E000000BFFEE77047000070B5164DED6805F095
:102E10000304144DED68C5F303156B1C022C0CD094
:102E2000032C09D1104DB5FBF3F50E4EF668C6F331
:102E3000062605FB06F10AE000BF0C4DB5FBF3F5D5
:102E4000084EF668C6F3062605FB06F100BF00BF74
:102E5000044DED68C5F341656D1C6A00B1FBF2F0ED
:102E600070BD00000010024000127A000024F4003F
:102E7000704710B5FEF7D0FB10BD00B593B03821F8
:102E800005A8FDF73BFA14216846FDF737FA002044
:102E9000FEF792FC012005900004069002200C90A1
:102EA00003210D9102210E9155210F9102211091C4
:102EB0001191129105A8FEF779FE08B1FDF76DFC9E
:102EC0000F200090032001900020029003900490B6
:102ED00004216846FEF706FD08B1FDF75EFC13B05D
:102EE00000BD00000348006840F47000014908601C
:102EF0007047000088ED00E010B50248FFF7E0FCE5
:102F000010BD00001001002010B50268314B98423E
:102F100011D0B0F1804F0ED02F4B98420BD02F4BD9
:102F2000984208D02E4B984205D02E4B984202D0A2
:102F30002D4B984203D122F070024B681A43254B67
:102F400098421AD0B0F1804F17D0234B984214D03A
:102F5000224B984211D0224B98420ED0214B9842DE
:102F60000BD0224B984208D0214B984205D0214BE0
:102F7000984202D01C4B984203D122F44072CB6895
:102F80001A4322F080034C6943EA040202608B6812
:102F9000C3620B6883620F4B98420ED0114B98426C
:102FA0000BD0124B984208D0114B984205D0114BD0
:102FB000984202D00C4B984201D10B690363012364
:102FC0004361036903F001031BB1036923F00103AB
:102FD000036110BD002C01400004004000080040C7
:102FE000000C00400034014000500140004001400E
:102FF000004401400048014030B501F01F050124A4
:1030000004FA05F3046A9C430462046A01F01F0594
:1030100002FA05F52C43046230BD30B50C468168D8
:1030200021F47F4142EA032525432943816030BDD5
:103030000A468168034B194042F007031943816037
:10304000704700008FFFCFFF30B50B461446026A71
:10305000056A25F001050562816921F0F00141EA68
:10306000041122F00A021A438161026230BD00009D
:1030700070B50C461546026A066A26F0010606621D
:103080008169184EB04214D0B0F1804F11D0164E65
:10309000B0420ED0154EB0420BD0154EB04208D003
:1030A000144EB04205D0144EB04202D0134EB0427E
:1030B00001D1012600E000261EB121F003012943C1
:1030C00001E041F0010121F0F001F02606EA0316CB
:1030D000314322F00A0204F00A063243816102629F
:1030E00070BD0000002C01400004004000080040BA
:1030F000000C0040003401400040014000500140FD
:1031000030B50B461446026A056A25F010050562C3
:10311000816921F4704141EA043122F0A00242EABF
:1031200003128161026230BD70B50C461546026A19
:10313000066A26F010060662816921F4407141EAB0
:10314000052121F470414FF4704606EA03363143FD
:1031500022F0A002A02606EA041632438161026230
:1031600070BD70B50C461546026A066A26F4807674
:103170000662C16921F00301294321F0F001F02624
:1031800006EA0316314322F420624FF4206606EA71
:1031900004263243C161026270BD70B50C4615460B
:1031A000026A066A26F480560662C16921F44071FB
:1031B00041EA052121F470414FF4704606EA0336D6
:1031C000314322F420424FF4204606EA04363243CB
:1031D000C161026270BD00BFFEE703B40198410007
:1031E000009850EAC12018BF04204A0D18BF40F0D3
:1031F000010040F2FF72B2EB515F08BF40F00200E5
:10320000012808BF052002B070470000024800688E
:10321000C0F30220704700000CED00E010B500285C
:1032200004DB0A07130E054A135406E00A07140EBE
:10323000034A00F00F031B1FD45410BD00E400E04C
:1032400018ED00E00000000010B52F499FED2C1B89
:103250002DED020B84B0059820F000408842DCBFC1
:1032600000209DED040B32DD2849884209D10498E5
:1032700040B94FF00100FDF770F800F03DFC06B0DA
:1032800010BD05DB9DED040B00F02AFC06B010BD5F
:1032900068469DED040B00F03BF810F0030011D0E0
:1032A000012818D09DED021B9DED000B02281AD0BD
:1032B00000F04AFA51EC100B00F07AFC06B041EC39
:1032C000100B10BD9DED021B9DED000B012000F0C9
:1032D0006FFB06B010BD9DED021B9DED000B00F0D5
:1032E00033FA06B010BD012000F062FB51EC100B68
:1032F00000F05EFC06B041EC100B10BD00000000B9
:103300000000000000000000FB21E93F0000F07F0A
:103310002DE9F14F04462DED020B2DED088B8AB0FF
:103320009FEDE70B80ED020B139EE74826F000456A
:1033300085420ADC9DED120B002084ED000B0AB0E3
:10334000BDEC088B03B0BDE8F08FE0489FEDE0AB2B
:103350009FEDE1BBA84247DDE14F9FEDE39B9FED71
:10336000E48B9DED120B53EC1A2B51EC100B002E3D
:103370001CDD00F0BBFF41EC100BBD4208D053EC4C
:103380001B2B51EC100B00F0B1FFC4E900010BE066
:1033900053EC192B51EC100B00F0A8FF53EC182B39
:1033A00000F0A4FFC4E900010120C8E700F00CFC14
:1033B00041EC100BBD4208D053EC1B2B51EC100B11
:1033C00000F002FCC4E900010BE053EC192B51ECB6
:1033D000100B00F0F9FB53EC182B00F0F5FBC4E9DF
:1033E00000014FF0FF30AAE7C348A84279DB9DED0A
:1033F000120B51EC100B00F09FFB41EC180B9FEDF2
:10340000C00B53EC102B00F067FE9FEDBF1B53EC7D
:10341000112B00F0D9FB00F0D7FD074600F031FE7C
:1034200041EC190B53EC1A2B00F056FE53EC182B01
:1034300000F050FF41EC180B53EC1B2B51EC190B17
:1034400000F04AFEDFF8C8A241EC100B4FEA155815
:103450000125FA4453EC102B51EC180B00F046FFF9
:10346000032DC4E900013DD0C1F30A5005EB45111D
:10347000A8EB00001139814234DA0AEB051BB0EEEB
:1034800048AA9BED000BF0EE68AA53EC102B51EC10
:10349000190B00F021FE41EC1B0B51EC1A0B53EC05
:1034A0001B2B00F023FF41EC180B51EC1A0B53ECD3
:1034B000182B00F01BFF53EC1B2B00F017FF9BEDAC
:1034C000020B41EC1A0B53EC102B51EC190B00F0D2
:1034D00003FE53EC1A2B00F009FF41EC100B6D1C9E
:1034E000B8E70EE0002EA8BF3846BFF628AF94ED2F
:1034F000000B51EC100B00F05BFBC4E900017842BB
:103500001DE7C6F3130040F4801EC6F30A50A0F274
:10351000F530471100F01F05C5F12000DDF848B077
:1035200008900020069007900520EC467949002D70
:1035300007EB0002794408BF51F8221009D051F876
:10354000223001EB8201AB404A68089922FA01F16E
:103550001943A1FB0E26A1FB0B131A449A4234BF58
:103560000123002303EB06080CEB8003D3E901A63B
:103570000E448E4234BF0121002192448A4411B18D
:10358000924502D903E0924501D2012100E00021D9
:10359000C3E901A641444CF82010011EA0F101002E
:1035A000C4DC029800F10050850F0298DDE9036742
:1035B0008000DDF8148000F064FD41EC1A0B304609
:1035C00000F076FD9FED541B53EC112B00F084FDB1
:1035D00041EC1B0B384600F06BFD9FED511B53EC8B
:1035E000112B00F079FD41EC180B404600F060FD16
:1035F0009FED4D1B53EC112B00F06EFD41EC190BB0
:1036000051EC180B53EC192B00F0DEFA53EC1B2B8A
:1036100000F0DAFA53EC1A2B00F0D6FACDE90801E3
:10362000002008909DED080B53EC1A2B51EC100B69
:1036300000F05CFE53EC1B2B00F058FE53EC182BF3
:1036400000F054FE53EC192B00F044FE9FED381BA4
:1036500053EC112B00F040FD9FED370B41EC180BA4
:1036600053EC102B9DED080B51EC100B00F034FDCA
:1036700053EC182B00F0A8FA9FED310B41EC180B1E
:1036800053EC102B9DED080B51EC100B00F024FDBA
:1036900053EC182B00F098FA41EC100B139810F033
:1036A000004F06D06D4251EC100B00F081FA41EC56
:1036B000100B284684ED000B41E6000000000000DE
:1036C0000000000000000000FB21E93F7CD902401F
:1036D00000004054FB21F93F3163621A61B4D03DD0
:1036E000FB21F93F000000000000601A61B4D03DEA
:1036F0007370032E8A19A33BFB213941000000009F
:1037000083C8C96D305FE43F000000000000E03F67
:10371000A2110000F0100000000000000000103EA8
:10372000000000000000103C000000000000103A03
:10373000182D4454FB21F93D3326A611460B113CAC
:1037400000000054FB21F93D10B52DED040B2DEDCB
:10375000088B82B0B0EE419AF0EE619A0B9820F09F
:1037600000449FED4BABB4F1795F11DA9DED0A0B8C
:1037700051EC100B00F028FC002801BFB0EE4A0A03
:10378000F0EE6A0A02B0BDEC088B04BF04B010BDB5
:103790009DED0A0B53EC102B51EC100B00F09CFC30
:1037A00041EC180B3C480621B0EE480AF0EE680ADE
:1037B000784400F081F853EC182B51EC100B00F01A
:1037C0008BFC9DED0A0B41EC1B0B53EC192B51ECC0
:1037D000100B00F081FC41EC190B53EC1B2B51EC4E
:1037E000180B00F079FC53EC192B00F07FFD9FEDD6
:1037F0002C0B41EC190B53EC102B51EC180B00F077
:103800006BFC41EC100B2848844210DA53EC192B66
:1038100051EC100B00F06AFD53EC1A2B00F05AFD2E
:1038200041EC100B02B0BDEC088B04B010BD1F487A
:10383000A042BCBF9FED1E1B8DED001B06DBA4F557
:1038400000100190002000909DED001B51EC100B2A
:1038500053EC112B00F04AFD9DED000B41EC180BD1
:1038600053EC102B51EC1A0B00F040FD41EC1A0BFD
:1038700053EC192B51EC180B00F038FD53EC1A2BBC
:1038800000F028FD41EC100BCCE700000000000028
:10389000000000000000F03F140E000000000000D7
:1038A000000000000000E03F3333D33F0000E93F59
:1038B000000000000000D23F70B504462DED028BE1
:1038C0004D1E00EBC500B0EE408AF0EE608A90ED30
:1038D000000B35F0060017D053EC182B51EC100BF1
:1038E00000F0FAFB41EC100B6D1E04EBC50090EDEF
:1038F000001B51EC100B53EC112B00F065F941EC5F
:10390000100B35F00600E7D1022D36D0042D1CD067
:10391000062D1CBFBDEC028B70BD53EC182B51EC77
:10392000100B00F0D9FB94ED0A1B53EC112B00F0A7
:103930004BF953EC182B00F0CFFB94ED081B53EC24
:10394000112B00F041F941EC100B53EC182B51EC0A
:10395000100B00F0C1FB94ED061B53EC112B00F093
:1039600033F953EC182B00F0B7FB94ED040B53EC38
:10397000102B00F029F941EC100B53EC182B51ECF3
:10398000100B00F0A9FB94ED021B53EC112B00F07F
:103990001BF953EC182B00F09FFB94ED001B53EC2C
:1039A000112B00F011F9BDEC028B41EC100B70BD36
:1039B00031B504462DED040B2DED0A8BB0EE41BA66
:1039C000F0EE61BA0B989DED0A0B20F00040B0F1CB
:1039D000795F0DDA51EC100BFFF7FFFB042808BFED
:1039E00000F09AF89DED0A0BBDEC0A8B05B030BDD6
:1039F00053EC102B51EC100B00F06EFB41EC180B4C
:103A00009DED0A0B53EC182B51EC100B00F064FBEE
:103A100041EC190B2C48B0EE480AF0EE680A05217B
:103A20007844FFF749FF9FED2ACBB0EE40AAF0EEB5
:103A300060AA9CB353EC1C2B51EC190B00F04CFB0F
:103A400041EC1C0B53EC1A2B51EC190B00F044FB0E
:103A50009FED210B41EC190B53EC102B51EC1B0B80
:103A600000F03AFB53EC192B00F040FC53EC182B00
:103A700000F032FB53EC1B2B00F038FC53EC1C2BFA
:103A800000F034FC9DED0A1B53EC112B00F022FCDE
:103A9000BDEC0A8B05B041EC100B30BDFFE753ECD9
:103AA0001A2B51EC180B00F017FB53EC1C2B00F0F9
:103AB0008BF853EC192B00F00FFB9DED0A1B53EC18
:103AC000112B00F081F8E3E79C0C000000000000DF
:103AD000495555555555C5BF000000000000E03F51
:103AE00010B553EC102B51EC100B00F06DF841ECBD
:103AF000100B10BD000000009FED050B10B553EC3E
:103B0000102B51EC100B00F007F941EC100B10BD1D
:103B100000000000000000009FED050B10B553EC05
:103B2000102B51EC100B00F0D7FA41EC100B10BD2C
:103B3000000000000000001082B0CDE9000121F07B
:103B4000004001909DED000B02B051EC100B70474E
:103B5000FDF76EFDFFF791F9FFF794F8FFF76AF8AC
:103B6000FFF70EF8FFF7BAF8FFF7EEF8FEF7EAFFF7
:103B7000FFF734F80B48FCF7E5FF0B48FCF7C0FCF7
:103B80000948FCF765FD09480068C06820F001009D
:103B900006490968C86008210448FEF7ADFD00BF6A
:103BA000FEE70000180000205C010020100100204A
:103BB00081F00041704780F00040704721F00041E3
:103BC000704720F00040704710B591EA030F48BFDE
:103BD00083F0004300F19283841A71EB030C05D249
:103BE000121943EB0C03001B61EB0C01DFF824E11D
:103BF0004FEA1154A4EB135C1EEA430F18BF9EEA70
:103C0000445F73D023EA0E03DCF1200E21EA045155
:103C100043F4801332D322FA0CFE10EB0E0023FA89
:103C20000CFE41EB0E01CCF1200E03FA0EFE10EB60
:103C30000E0051F10001B1F5801FCCF1200E32D2FF
:103C400001EB045112FA0EF2BDE8104058BF704764
:103C5000401C38BF5FEA420218BF7047002814BFFB
:103C600020F0010041F100014FEA410313F5001F6C
:103C700038BF7047A1F1C04100F026BB012A43EBD9
:103C80000302ACF1200CDCF11F0E32BF4FF0000E2E
:103C900023FA0CF310EB030041EB0451B4EB115F7A
:103CA000D0D0A1EB045101F5801149085FEA300042
:103CB00001EB04510ED350F1000038BF12FA0EFE92
:103CC00008D1BDE81040C9E7401C38BF5FEA420296
:103CD000CAD1C3E7BDE810404FEA410313F5001F06
:103CE00038BF7047A1F1C04100F0EEBA9EEA445FD0
:103CF00008D011EA5E0FBDE8104004BF01F000419A
:103D000000207047BDE8104070B500F08FFA00BF8A
:103D100064FBBE3E0000E0FF2DE9C04130B4DFF897
:103D2000A0C23CEA111418BF3CEA131400F0EC8066
:103D300081EA03051CEA111444EAD57418BF1CEA91
:103D4000131500F0C780A4EB05044FF0004545EAC9
:103D5000C12145EAC32341EA505143EA525304F1D9
:103D60007F74994204F500344FEAC0204FEAC22222
:103D700008BF904200F09C804FEA13650FF2401696
:103D8000765D4FEA134506FB05F7C7F1807706FB22
:103D900007F74FEAD737A7FB03687642C8F58038A4
:103DA000A7FB06CE38BFA8F1010807FB08E64FF0D5
:103DB000000EA6FB028CE6FB03CEDCF1000CCEF17C
:103DC000004E38BFAEF1010EA6FB0C584FF00007B5
:103DD0004FF00005E6FB0E87A1FB08C6A0FB07CE4F
:103DE00016EB0E0645F10005E1FB076515F1E04E07
:103DF0007EBFA4F580345FEA46066D4116F1800768
:103E000045F100054FEA17274FEA066647EA0567BE
:103E1000A6F1DE46B6F1805F4FEA15251FD9384678
:103E200024F0010C05EBC471BCF1FE6F01EB0C1129
:103E300002D8F0BCBDE8008124425CBF01F5801EC1
:103E40009EEAC47F02D4F0BCBDE80081244238D48D
:103E5000F0BCA1F1C041BDE8004100F035BA4FEA25
:103E6000D22242EA43524FEAD323A7FB02864FEA0B
:103E7000D02040EA415007FB03661EEA0E0F4FEACE
:103E8000D12105FB026658BFA6EB0056B6EB0056E3
:103E90004FEA520E4EEAC37E18EB0E0E56EB530E4F
:103EA000BDD518EB02085E417F1C55F10005B6E751
:103EB0004FF480154FF000074FF000064FF0000858
:103EC000ADE7F0BC4FF0000001F1C04101F000414E
:103ED000BDE8008111EA0C1F0CEA131500D00CE0BC
:103EE00013EA0C1F00F025804FF00000F0BC81EABF
:103EF000030101F00041BDE80081F0BCBDE80041D4
:103F000081EA030100F0E0B9F0BCBDE8004170B502
:103F100000F08CF9097EFC3E00F007B881EA03014D
:103F20004FF0000001F00041704781EA030100F00A
:103F3000CBB9F0BCBDE800414FF00000214970470B
:103F4000FFFDFBF9F7F5F4F2F0EEEDEBE9E8E6E45E
:103F5000E3E1E0DEDDDBDAD8D7D5D4D3D1D0CFCDE5
:103F6000CCCBCAC8C7C6C5C4C2C1C0BFBEBDBCBB1E
:103F7000BAB9B8B7B6B5B4B3B2B1B0AFAEADACAB19
:103F8000AAA9A8A8A7A6A5A4A3A3A2A1A09F9F9EF3
:103F90009D9C9C9B9A9999989797969595949393A5
:103FA000929191908F8F8E8E8D8C8C8B8B8A89893C
:103FB00088888787868585848483838282818180BF
:103FC0000000FF070000F87F4FEA41034FEA535318
:103FD000A3F58063D3F11E03C8BFD3F1210C0CDD20
:103FE0004FF0004242EAC12242EA505232FA03FC48
:103FF0008CEAE17CACEBE1707047102BC4BF002071
:10400000704703F5787CBCF1FF3F04D06FF00042AD
:1040100082EA2100704770B500F008F949922480C7
:1040200000207047F2E700004FEA1153A3F58063C8
:10403000D3F11E03A8BFD3F1200C08DB4FF00042E0
:1040400042EAC12252EA505232FA03F07047094262
:104050000BD4102BC4BF0020704703F5787CBCF153
:10406000FF3F05D04FF0FF3070474FF00000704722
:1040700070B500F0DBF800BF499224800020704743
:10408000F0E710F0004248BF4042B0FA80F310FA67
:1040900003F10AD0C3F11D0303F580634FEA4150D9
:1040A00002EB035202EBD12170474FF00000704742
:1040B000B0FA80F310FA03F10AD0C3F11D0303F53F
:1040C00080634FEA41504FEA035202EBD12170471F
:1040D0004FF0000070470000DFF848C170B51CEADF
:1040E000111E1EBF1CEA13159EEA0C0F95EA0C0F59
:1040F00000F06F8081EA030423EA4C134EEAD47E79
:1041000021EA4C1141F4801143F48013AE44A1FB29
:10411000024CA0FB0365AEF17F7E361955EB0C0512
:10412000A1FB034C4CF10003A0FB021C16EB0C0698
:10413000654153F10003094218BF46F0010613F42C
:10414000007F0BD14FEA03314FEA0530340341EAD7
:10415000155140EA16506FF003020AE04FEAC321FE
:104160004FEAC520F40241EA555140EA56506FF03B
:10417000020202EB2E4201EB025585EACE710AD013
:104180005FEA440C18BF24F0004450F1000041F1F4
:10419000000120EAD47040F2FE7C624500D270BD7E
:1041A000A84214BF4FF080444FF04044002E08BF97
:1041B0000024BEF1806FA8BFA1F1C041BDE87040EE
:1041C00080F282804FF0000001F1C04101F0004117
:1041D00070479EEA0C0F0CEA131518BF95EA0C0FF6
:1041E00006D04FF0000081EA030E0EF0004170BDD2
:1041F00000F01CF88900013E00F007B800F009B893
:104200004FEA430C5FEA5C5C08D081EA030100F0EE
:104210005BB84FEA410C5FEA5C5CF6D14FF00000FE
:10422000014970470000FF070000F87F0EF1020E01
:104230002EF0030E5EF8046B364205D4012A43EBE0
:10424000030515F5001F12D8012841EB010C1CF5E0
:10425000001F0CD80ED14FEAD17C15F5001F0CEBD6
:104260004C0C0CF1020C08BF4CEBD37C04E04FF07B
:10427000080C01E04FEAD37C0CEB4C0526FA05F65E
:1042800006F00706B6F1040C06D20EEB860CBDE86C
:1042900070404CF0010C6047DFE80CF0090B0202A3
:1042A0004FF000414FF00000A1F5002170BD19460C
:1042B0001046012851EB010418BFD4F5001484BF47
:1042C000002001F0004170BD0808A0F500114FEA80
:1042D0003101704791EA030F10B581F000413FF5BD
:1042E0007BAC83F0004300F009B8000010B591EA00
:1042F000030F48BF83F000433FF56EAC841A71EBA7
:10430000030C07D212198CF0004C43EB0C03001B7A
:1043100061EB0C01DFF8A4E14FEA1154A4EB135C4C
:104320001EEA430F18BF9EEA445F00F0B08023EA04
:104330006E03524221EA0451C3EB6E0338BF5B1E89
:10434000DCF1200E25D322FA0CFE10EB0E0043FA0E
:104350000CFE41EB0E01CCF1200E03FA0EFE10EB29
:104360000E0051F10001CCF1200E29D412FA0EF208
:1043700001EB0451BDE8104058BF7047401C1CBF02
:10438000B2F1004F704700280CBF491C20F001001B
:10439000704712EB020E43EB030218BF4FF0010E01
:1043A0004EEA4202ACF1200CDCF11E0E54D943FA65
:1043B0000CFE10EB0E0051F1FF31CCF11E0ED5D5E5
:1043C0000EF1010E12FA0EFE404141EB010101EB2C
:1043D000445C5FEA5C5C10D910EBDE7001EB0451C9
:1043E00038BFBEF1004FBDE8104018BF704700282D
:1043F0000CBF491C20F00100704730D24FEAD42C8A
:1044000011F5001124F400641BD0B1FA81F20B3ACB
:10441000A41AA41ED2F12003914030FA03F31943E9
:10442000904001EBCC71002C01EB0451BDE8104031
:10443000A8BF704701F1C0414FF0000001F00041FA
:104440007047B0FA80F310FA03F100D110BDE41AFE
:10445000173C4805C90AE4E701EB045110BD4910B7
:1044600001EB0451BDE810404FEA300002E04FF08C
:10447000000170474A0008BF0042F8D0B2F5001FA3
:1044800028BF704701F000414FF0000070479EEADE
:10449000445F07D011EA5E0FBDE8104004BF002161
:1044A00000207047BDE8104070B5FFF7BFFE00BFA9
:1044B00040DFF63E83F00041104670470000E0FF09
:1044C00043004FEAD30C4FEA3C0C43401FBF400768
:1044D0000CF1605113F0FE4F70471CF0006F03D1D8
:1044E00000200CF0004170470CF0004343EA50708C
:1044F00010B540EACC0000F00EF800BF00000092BA
:104500004FEA0001FFF7E0BE4FF000414FF000001E
:10451000A1F5002170470EF1020E2EF0030E5EF899
:10452000044B244204D44FEA4102B2F17F4F11D828
:104530004FEA4003B3F17F4F0CD80ED14FEAD07C45
:10454000B2F17F4F0CEB4C0C0CF1020C08BF4CEBA2
:10455000D17C04E04FF0080C01E04FEAD17C0CEB79
:104560004C0324FA03F404F00704B4F1040C06D25B
:104570000EEB840CBDE810404CF0010C6047DFE806
:104580000CF0070802024FF00040A0F5800010BDBB
:104590000846420018BFD2F1807288BF00F0004088
:1045A00010BD4FF04070E1EE100A704700000000AF
:1045B00000000000010203040607080900000000D3
:1045C00001020304000000004C5555555555A53F08
:1045D0007751C1166CC156BF9015CB19A001FA3E98
:1045E000AD529C804F7E92BEC4B1B4BD9EEE213EC2
:1045F000D43888BEE9FAA8BD00004054FB21F93F39
:104600003163621A61B4D03D0000601A61B4D03DDC
:104610007370032E8A19A33B0000002E8A19A33B56
:10462000C14920259A837B3900000000000000006A
:104630006E83F9A22915444ED15727FCC0DD34F50D
:10464000999562DB4190433CAB6351FE61C5BBDE93
:104650003A6E24B7E0D24D42EA2E49061C92D109A7
:104660001CEB1DFE3EA729B1F53582E88444BB2E24
:1046700026709CE9417E5FB439D69139F439538371
:104680008B5F849C3B28F9BDFF97F81F0F9805DED0
:104690008B112FEF1F6D0A5ACF7E366DB709CB27CE
:1046A000663F464F2DEA5F9EC7BA27757BF1E5EB63
:1046B000F739073DEA92528AB15FFB6B085D8D1FA7
:1046C000A6F810111111813FD561C119A0012ABFAF
:1046D0007DFEB157E31DC73EEB9C2B8AE6E55ABE33
:1046E0007CD5CF5A3AD9E53D0847000800000020A4
:1046F00018000000140200082047000818000020DD
:10470000B80F0000300200080000000000000000A8
:1047100010000000010000000024F4000000000070
:04000005080001D915
:00000001FF
